S013000052413245315F436C6F636B2E737265638B
S3150000000068660020AD12000055110000A91200001C
S31500000010A9120000A9120000A9120000A9120000EE
S31500000020000000000000000000000000A91200000F
S31500000030A912000000000000A9120000A912000089
S315000000400000000000000000000000001D0C000081
S31500000050B90A0000250A0000590B0000A50B000094
S31500000060000000000000000000000000000000008A
S31500000070000000000000000000000000000000007A
S31500000080000000000000000000000000000000006A
S31500000090000000000000000000000000000000005A
S31500000400FFFFFFFFDFCEFFFFFCFF0F00FFFF0F0028
S31500000410FCFF0F00FFFF0F00FCFF0F00FFFF0F00A8
S31500000420FCFF0F20FFFF0F20FCFF7F40FFFF7F40F8
S31500000430FCFF0D40FFFF0D40FFFFFFFFFFFFFFFF2B
S31500000440FFFFFFFFFFFFFFFFFFFFFFFFFFFFFFFFB6
S31500000450FFFFFFFFFFFFFFFFFFFFFFFFFFFFFFFFA6
S31500000460FFFFFFFFFFFFFFFFFFFFFFFFFFFFFFFF96
S31500000470FFFFFFFFFFFFFFFFFFFFFFFFFFFFFFFF86
S31500000480FFFFFFFFFFFFFFFFFFFFFFFFFFFFFFFF76
S31500000490FFFFFFFFFFFFFFFFFFFFFFFFFFFFFFFF66
S315000004A0FFFFFFFFFFFFFFFFFFFFFFFFFFFFFFFF56
S315000004B0FFFFFFFFFFFFFFFFFFFFFFFFFFFFFFFF46
S315000004C0FFFFFFFFFFFFFFFFFFFFFFFFFFFFFFFF36
S315000004D0FFFFFFFFFFFFFFFFFFFFFFFFFFFFFFFF26
S315000004E0FFFFFFFFFFFFFFFFFFFFFFFFFFFFFFFF16
S315000004F0FFFFFFFFFFFFFFFFFFFFFFFFFFFFFFFF06
S3150000050010B544F28804C2F20004237863B940F2BD
S315000005100003C0F200032BB142F2C420C0F2000077
S3150000052000E000BF0123237010BDC04640F2000367
S31500000530C0F2000310B54BB144F28C0142F2C42064
S31500000540C2F20001C0F2000000E000BF10BDC046CC
S315000005500379022B05D144F2A8030122C2F200035B
S315000005601A707047F0B5CE46474680B5914683B0BF
S31500000570002A20DD884644F2A40644F2A8040D00B1
S315000005800027C844C2F20006C2F20004002344F267
S31500000590B400EB56012201A9C2F20000019300F05B
S315000005A061F8306000B100BE2378002BFCD0013525
S315000005B027704545EAD1484603B0C0BCB946B046A7
S315000005C0F0BDC04642F2A81144F2B40010B5C0F224
S315000005D00001C2F2000000F0D1F844F2A403C2F216
S315000005E00003186060B942F28010C0F2000000F00B
S315000005F0B9FF40F2E83140F2E83000F07DFDF2E765
S3150000060042F2581342F2901242F26C103921C0F2B3
S315000006100003C0F20002C0F2000000F067FDC04611
S3150000062000B583B040B94CF2000390220121C4F218
S315000006307E03995403B000BD0228FBD142F29C13FD
S3150000064044F2AC00C0F200035B68C2F2000019007D
S31500000650019300F029FCEDE710B5FFF7B3FF00208A
S3150000066010BDC0467B2330B5046AA5782B40A37025
S3150000067083789B079B0FD21A02618022CB18C36036
S31500000680A3781343A370032382781340022B03D06D
S315000006900B78E370002030BD4FF600620B881343E1
S315000006A0E381F7E7F0B51F2501241540AC404EF273
S315000006B00015C64653092033CEF200059B0000B54F
S315000006C088465C51BFF34F8FBFF36F8F130046F21E
S315000006D00004C033C4F200049B001D59124E35407D
S315000006E01D511B594EF20011FF240325CEF20001C5
S315000006F08C46210040F200371540ED00A9409308D2
S315000007009B006344DE5992008E43414689010C40AA
S31500000710AC403443DC5144F22813C2F20003D050FB
S3150000072080BCB846F0BDC046FFFFFEFFF0B5C6462A
S3150000073000B50500806A84B08C4690466C46D8B1F8
S315000007402300060086CE86C336681E60EB691B78DA
S3150000075003606346836043460371EB6AC3606B6A5A
S315000007609847AB6A23B107CC07C31A002368136006
S3150000077004B080BCB846F0BD2000E7E743F60002AF
S31500000780C0F200229446F8B54546DE4657464E4628
S315000007900B78E0B563445B010362002303704A698A
S315000007A00D0042628A69C161C2620322012183622D
S315000007B08378040093430B4383706B7823B9837863
S315000007C093430222134383700B222000AA56A97A70
S315000007D0FFF768FF05222000AA562979FFF762FF76
S315000007E007222000AA56A979FFF75CFF09222000FC
S315000007F0AA56297AFFF756FFEFF31086012080F3F9
S315000008001088802146F6FC732F780906F940C4F259
S3150000081004035A688A435A605B6886F3108800228C
S31500000820236A29789A701A715A729A72DA725A83FE
S3150000083040F20722CA40104201D04022DA74062252
S315000008401A776878AA78EE78E9692D780DB9734D2C
S315000008509D821201F6003243032800D1D9E0451EDD
S31500000860A8410001E230D2B21A7002229871087BC8
S31500000870FF264000024020205A734A788D78D20124
S315000008806D01284032400243002018720878851E08
S315000008908346012D00D8B4E003274D68D2B2DA7141
S315000008A0AA786E785A701A783E40BA4332431A7064
S315000008B0EA7859379A74DE792A78BE433A40324349
S315000008C0DA71002305222361A361E3606361E369B2
S315000008D0534F9A5646F200031500C035C4F2000382
S315000008E0AD00EE58BC463E40EE50ED58BFF35F8F6C
S315000008F040F21F0A0126554637001540AF404EF21A
S315000009000015CEF20005A94640F280155209920064
S315000009104A445751176040F2C008E2696046D27AED
S3150000092052B290444746BF00B846FF58074040467B
S31500000930C750C058BFF35F8F57461740B8463700B9
S31500000940404687404EF20010CEF200008146520922
S3150000095092004A445751176040F2C008E269D279C2
S3150000096052B29044404680008046C0580700604618
S3150000097007404046C750C058BFF35F8F57461740E1
S31500000980B8463700404687404EF20010CEF20000CF
S315000009908146520992004A445751176040F2C008F6
S315000009A0E2696746527A52B29044404680008046D9
S315000009B0C05807404046C750C358BFF35F8F4EF23A
S315000009C000135746CEF2000317409C46BE4052091C
S315000009D092006244565116600323584618406D3300
S315000009E01843236A98704B890020238144F65513D7
S315000009F0C5F243336360F0BCBB46B246A946A04687
S31500000A00F8BD5E70022801D110252A43D2B2DA71F0
S31500000A1057E73D300243B23025E7C04600F8FFFFF6
S31500000A20FFFFFEFF70B5EFF30383103B5BB21A00C6
S31500000A3046F20001C032C4F20001920050581D4C2B
S31500000A4020405050525844F228129B00C2F2000235
S31500000A509858C3691B6913B1036913B170BD036963
S31500000A6083B97F23026A91780B4004210B4393706C
S31500000A700023C360436A002BF0D080220021FFF7D9
S31500000A8055FEEBE703218278114002290AD0C1689E
S31500000A90056A0C78EC709207920F9B1A8A1803610C
S31500000AA0C260DAE74FF60065C1680C882C43056A18
S31500000AB0EC81F0E7FFFFFEFF10B582B0EFF3038392
S31500000AC0103B5BB21A0046F20001C032C4F20001CC
S31500000AD0920050581F4C20405050525844F2281251
S31500000AE09B00C2F200029C580323A2781340022BFB
S31500000AF00DD0236A5979A369C9B2019183B9636A92
S31500000B001BB104222000FFF711FE02B010BD40F217
S31500000B10FF11236A1B8A1940A3690191002BEED0AD
S31500000B209207920F606901A900F09CFCA3786269A4
S31500000B309B079B0FD2186261A269D31AA361002B8F
S31500000B40E3D1636A002BE0D0012200212000FFF7E9
S31500000B50EDFDDAE7FFFFFEFF10B5EFF3038444F285
S31500000B602813103C64B2C2F20003A200D0587B23C3
S31500000B70026A91780B409370436A1BB102220021EE
S31500000B80FFF7D4FD230046F20002C033C4F2000290
S31500000B909B0099580248014099509B5810BDC04689
S31500000BA0FFFFFEFF70B5EFF3038444F22813103CF9
S31500000BB064B2C2F20003A200D05803238278134025
S31500000BC0022B22D0036A5979C9B238221D792A40EC
S31500000BD0ED0602D51D7FED0714D538261D79B543E0
S31500000BE01D71436A0BB1FFF7A1FD230046F2000217
S31500000BF0C033C4F200029B0099580748014099503F
S31500000C009B5870BD40252A43E7E740F2FF11036A6F
S31500000C101A8A1140D9E7C046FFFFFEFFEFF30383B0
S31500000C2044F22812103B5BB29900C2F200028A58C5
S31500000C300121117246F20002C033C4F200029B0089
S31500000C4099580248014099509B587047FFFFFEFF94
S31500000C500023036000207047FF2010B540F6000413
S31500000C600B0A084019010918C4F2040489000B593B
S31500000C7000209B07DB0F137010BDC0460023C4F293
S31500000C8004039C46090A490161444B68002013800D
S31500000C907047C0460020C4F2040084461800090AC2
S31500000CA090430004134049010343614400208B60D4
S31500000CB07047C046FF2001230840834052B91B04F9
S31500000CC00022C4F204029446090A49016144002044
S31500000CD08B6070474FF6FF721340F1E70020C4F2B5
S31500000CE0040084461800090A490110B561440C68DD
S31500000CF010402043934398430860002010BDC0462F
S31500000D000023C4F204039C46090A490161444B6866
S31500000D1000201B0C138070470020C4F20400844698
S31500000D200B0A5B0163445868FF231940FE3B8B4066
S31500000D30000C99B203405B1A59424B4100201370D4
S31500000D407047C0460020C4F2040084461800090A11
S31500000D509043000413404901034361440020CB60E3
S31500000D607047C0460B0A10B55B01012A10D000225D
S31500000D70C4F204029446FF208022014052028A40B7
S31500000D806344DC682243120C12040020DA6010BDB2
S31500000D900020C4F204008446FF2001408A4011006E
S31500000DA04FF6FF726344DC68114021430A40ECE7CA
S31500000DB0F0B5DE4657464E464546E0B583B0EFF3FE
S31500000DC01082012383F3108844F22413C2F2000335
S31500000DD001931B6833B940F60051C4F20401CB708D
S31500000DE04033CB7001990B6801330B6082F3108896
S31500000DF003889A46BBB3802340F600055B029946FA
S31500000E00284B002240F2FF089C464168C4F20405C4
S31500000E100AE043461E4023019B1901329B0092B211
S31500000E205851083192451ED04B468E880868340AC0
S31500000E301842EED043461E4023019C19A700644683
S31500000E4000977F599B1927403C00009F01327C5137
S31500000E50674607403C00009F9B0092B27C510831D8
S31500000E6058519245E0D1EFF31082012383F31088A5
S31500000E70019B1B681BB101990B68013B0B60019B31
S31500000E801B6833B940F60051C4F20401CB708033BD
S31500000E90CB7082F3108803B0F0BCBB46B246A946BD
S31500000EA0A046F0BDFFFFFEFF45F2542310B5C5F284
S31500000EB04F0303600800FFF77BFF002010BDC0460C
S31500000EC010B50800FFF774FF002010BDF0B5EFF372
S31500000ED01084012383F3108844F22413C2F2000322
S31500000EE0186830B940F60055C4F20405E870403081
S31500000EF0E87018680130186084F31088D00321D494
S31500000F00FF24080A0C40010140F600000919C4F24A
S31500000F10040089000A50EFF31082012181F3108842
S31500000F20196811B11968013919601B6833B940F69F
S31500000F300051C4F20401CB708033CB7082F3108869
S31500000F400020F0BDFF2440F60005080A0C40010110
S31500000F500819C4F2040580004759034E374016406D
S31500000F6047514651D0E7C046FFFFFEFF4EF2000351
S31500000F70262244F27001C4F20103985C1B6A8000C9
S31500000F80C2F2000141585B015B0F44F2B412D94032
S31500000F90C2F20002116070474EF2000340F2FE32C8
S31500000FA04B49C4F2010370B599524CF2000200207D
S31500000FB043F6C871C4F27E02505444F2700446F6F9
S31500000FC00042C2F20004C0F2DC22226041F200229A
S31500000FD0C0F27A02626048F2000242F20041A26068
S31500000FE022612622C0F2F401E160995C1A6A890046
S31500000FF061585201520F44F2B415D14040F21342E7
S31500001000C2F20005296098540921A222995440F29F
S315000010108042995C002953D04EF20003002240F230
S315000010208141C4F201035A5401395A54A0329A5CE0
S31500001030CAB136229A5C1AB93C215A5CD207FCD551
S315000010404EF20002A021C4F20102535CDB06D80F67
S31500001050002BFADB50544EF20002A021C4F201022A
S31500001060535CDB06FCD44EF2000200213623C4F2A8
S315000010700102D1543C31535CDB07FCD501213123FD
S31500001080D1544FF6C473C4F27E03197040F20013B4
S3150000109000201362DA3BD054D05C136A80002058DB
S315000010A05B015B0FD84040F2FE3328600948D052FE
S315000010B04CF2000343F6C872C4F27E03995470BD25
S315000010C0013140F2C440995400F016F8A4E7C04636
S315000010D003A5FFFF00A5FFFF44F20003282200211D
S315000010E0C4F20403995470477047C04600BEFEE739
S315000010F001380028FCD1704744F2B4124CF60023A4
S315000011004143C2F2000270B51468C3F69A330D006B
S31500001110B3FBF4F4080040F2E8320023002100F0AB
S315000011206DF931B9B0FBF4F0800808B1FFF7E0FFC4
S3150000113070BDA000B5FBF0F040F2E83200230021BC
S3150000114000F05CF90029F0D001204042FFF7D0FF03
S31500001150EEE7C046F8B546F2000340F2401244F20C
S31500001160E40500240127C4F200039E5AC2F20005DA
S31500001170B6B23300E340E0B21F4202D02B6803B19F
S31500001180984701340435102CF3D146F2000340F29F
S315000011903012C4F200039E52F8BDC04646F200006B
S315000011A00023C4F2000042F20422C0F200029A18A0
S315000011B011781A00C032920001331150202BF2D15F
S315000011C07047C04670B5EFF31081012383F3108892
S315000011D044F2A8134000C2F200031A5A1AB11A5A6E
S315000011E0013A92B21A521B5A83B94EF2000240F2E9
S315000011F0FE3542F25824C4F20102565B054BC0F29A
S315000012000004205A334383439BB2535381F310881F
S3150000121070BDC04600A5FFFF70B5EFF31081012336
S3150000122083F3108844F2A8124000C2F20002135A57
S3150000123083B94EF2000442F2582540F2FE36C4F25B
S315000012400104C0F20005A35B2D5A2B434AF2005558
S315000012502B43A353135A01339BB2135281F31088C5
S3150000126070BDC04644F2B012C2F20002030010681C
S3150000127010B558B1032103338B4346F26821C318D6
S31500001280C2F200018B4207D8136010BD44F26820F9
S31500001290C2F200001060EDE700F0DEF80C230360F8
S315000012A001204042F1E7C04600BE704710B500F08D
S315000012B003F8FFF7D1F9FEE7F0B54EF6005340F21A
S315000012C00005CEF20003C0F2000583B09D60002049
S315000012D0FFF7A6F9FFF760FE6B460027DC1D2770B7
S315000012E001202378FFF798FFEFF31081012686F39C
S315000012F0108846F6FC73C4F204039A683C48024020
S315000013009A609A6881F3108840F60001C4F20401DD
S315000013100A68D207D20F22700A68D207D20F22704B
S315000013200A68D207D20F2270EFF3108186F3108875
S3150000133080229868520502439A609B6881F3108860
S315000013400120FFF73FFF0120FFF76AF940F600533F
S31500001350284AC4F200039F8027491A802A6841F26E
S31500001360000051189960DA6046F2000240F220113E
S31500001370C4F20002505244F2682244F28800C2F2DB
S315000013800002C2F200009E800021121A00F073F8DB
S3150000139044F2000044F2700242F2C821C2F2000098
S315000013A0C2F20002121AC0F2000100F05BF844F229
S315000013B0680544F26C03C2F20005C2F200035B1B2F
S315000013C09E10002B05DD002408CD01349847A64267
S315000013D0FADCFFF7CBFDFFF77FFE0220FFF720F9CF
S315000013E0FFF7DCFE0020FFF77FFE03B0F0BDC0462E
S315000013F0FFFFFFEF00A5FFFF00FCFFFFF0B54FF674
S31500001400FF75CE46474699462B0015400E0029002B
S315000014100340140C80B50700000C59434543634351
S3150000142060435B190C0CE4188C46A54203D9802353
S315000014305B0298464044230C61461B1820044FF675
S31500001440FF740C40494679437243C918001989183C
S31500001450C0BCB946B046F0BD014B18687047C046DF
S3150000146004400020002310B59A4200D110BDCC5C88
S31500001470C4540133F8E703008218934200D1704741
S3150000148019700133F9E7FFFF70B505000E0018B1BA
S3150000149083690BB900F05EFAAB69AC6813B9280032
S315000014A000F058FA2C4B9C4220D16C68636EDB0727
S315000014B005D4A3899B0502D4A06D00F0EAFAA3899E
S315000014C01B0701D5236943BB2100280000F0A6F8BD
S315000014D018B301256D42636EDB0705D4A3899B050E
S315000014E002D4A06D00F0D6FA280070BD1B4B9C42BA
S315000014F001D1AC68DAE71A4B9C42D7D1EC68D5E744
S315000015000136A360002B04DAA2699A4216DC0A2986
S3150000151014D023685A1C22601970A3683178013BE5
S315000015200029EDD1A360002B0FDA280022000A3132
S3150000153000F022F80A25431CCDD1CAE72200280074
S3150000154000F01AF8431CE8D1C3E70A2523685A1CA1
S3150000155022601D70BFE7C04684220000A42200005E
S315000015606422000010B5034B01001868FFF78CFFDA
S3150000157010BDC04604400020F8B505000E0014005A
S3150000158018B183690BB900F0E5F9214B9C422CD1C7
S315000015906C68A369A360A3891B0730D52369002B58
S315000015A02DD023682269F7B2981A6369F6B283428E
S315000015B004DC2100280000F02FF930BBA3680130BD
S315000015C0013BA36023685A1C22601F706369834233
S315000015D004D0A389DB0706D50A2E04D121002800F2
S315000015E000F01AF988B93000F8BD0A4B9C4201D1C7
S315000015F0AC68CEE7084B9C42CBD1EC68C9E721002A
S31500001600280000F00BF80028CBD001267642EAE746
S3150000161084220000A422000064220000354B70B52D
S315000016201D6806000C0025B1AB6913B9280000F04F
S3150000163091F9314B9C420FD16C680C23E25E93B258
S3150000164011072CD4D90611D409230120336037336E
S315000016501343A381404270BD284B9C4201D1AC6824
S31500001660EBE7274B9C42E8D1EC68E6E75B0712D52F
S31500001670616B41B123004433994202D0300000F03F
S3150000168073FA002363632422A3899343A38100236F
S315000016906360236923600823A2891343A381236916
S315000016A05BB940F2802140F20022A3890B409342AD
S315000016B003D02100300000F017FA0C22A35E0120AF
S315000016C01A0099B2024003420FD00022A26062695A
S315000016D05242A26122690020002ABCD10A06BAD56C
S315000016E040221343A3810138B5E7880700D4626915
S315000016F0A260EFE70440002084220000A42200003C
S3150000170064220000F7B58B8905000C001A075DD42A
S315000017104A68002A04DC0A6C002A01DC0020FEBDAF
S31500001720E76A002FFAD0002241F200012E682A60F3
S315000017301A000A400B4232D0606DA3895B0705D5BB
S315000017406368C01A636B0BB1236CC01A0200216A6E
S3150000175000232800E76AB847A189431C06D12B68F5
S315000017601D2B30D82B4ADA40D3072CD500236360D3
S3150000177023692360CB0404D5431C01D12B6803B92C
S315000017806065616B2E600029C8D0230044339942FE
S3150000179002D0280000F0E8F900206063BFE70123CB
S315000017A02800216AB847431CC7D12B68002BC4D038
S315000017B01D2B01D0162B01D12E60AFE74023A28945
S315000017C01343A381ABE740230B43FAE70F69002FCE
S315000017D0A4D00A680F60D21B019200229B0700D199
S315000017E04A69A260019B002B98DD3A002800019B04
S315000017F0216AA66AB047002806DC40230120A28998
S3150000180040421343A3818AE7019B3F181B1A0193A9
S31500001810E8E7C046010040200B6970B505000C00E2
S3150000182013B90025280070BD18B183690BB900F003
S3150000183091F8144B9C421BD16C680C22A35E002BC2
S31500001840EFD0626ED20704D49B0502D4A06D00F0DF
S3150000185020F928002100FFF755FF636E0500DB071E
S31500001860E0D4A3899B05DDD4A06D00F013F9D9E778
S31500001870054B9C4201D1AC68DFE7044B9C42DCD1AE
S31500001880EC68DAE784220000A4220000642200004B
S31500001890002310B5040003604360836081814366C2
S315000018A01900C28103614361836108225C30FFF73E
S315000018B0E2FD054B24626362044BA362044BE362C0
S315000018C0044B236310BDC046411D0000691D000086
S315000018D0A11D0000CD1D000010B5024900F0B8F8AA
S315000018E010BDC0461918000070B568254A1E55433C
S315000018F00E002900743100F09DF9040040B100216A
S315000019002A00016046600C30A0606832FFF7B3FD24
S31500001910200070BD10B5024800F0BBF810BDC046EF
S31500001920B941002010B5024800F0B4F810BDC04619
S31500001930B941002010B5024800F0ABF810BDC04612
S31500001940BA41002010B5024800F0A4F810BDC04608
S31500001950BA41002013B50400FFF7ECFFA36913B1E9
S31500001960FFF7F0FF13BDA364E3642365134B144A2A
S315000019701B68A2620193A34201D10123A361200047
S3150000198000F020F86060200000F01CF8A060200045
S3150000199000F018F800220421E0606068FFF778FF85
S315000019A001220921A068FFF773FF02221221E068D5
S315000019B0FFF76EFF0123A361D2E7C0466022000055
S315000019C0D9180000F8B50700FFF7A4FF1E4B1E68E4
S315000019D0B36913B93000FFF7BDFF4836B4687368C2
S315000019E0013B03D533680BB33668F7E70C22A55ED7
S315000019F0D5B92000154B5830E360656600F048F80D
S31500001A00FFF790FF2000082229002560A560656089
S31500001A1025616561A5615C30FFF72DFD6563A563F2
S31500001A20A564E5642000F8BD6834D9E704213800D0
S31500001A30FFF75AFF040030600028D5D1FFF772FF88
S31500001A400C233B60EEE7C046602200000100FFFF6A
S31500001A50F7B5040006000027019148346368A568BD
S31500001A600093009B013B009304D52468002CF5D11C
S31500001A703800FEBDAB89012B08D90E22AB5E0133BF
S31500001A8004D029003000019B984707436835E8E7F2
S31500001A90704770477047FFFF70B50E001D000E239C
S31500001AA0C95E140096B0002908DA0C22B35E002243
S31500001AB02A601B0611D440F200430FE06A4600F08C
S31500001AC0ADF90028F1DB4FF2000301991940054BEF
S31500001AD0C9184B4259412960EDE740230020236095
S31500001AE016B070BD00E0FFFFF7B502268B89050032
S31500001AF00C00334206D023004733236023610123C1
S31500001B006361F7BD6A4601ABFFF7C6FF00990700A0
S31500001B10280000F08FF840B90C22A35E9A05F0D495
S31500001B20032293431E43A681E5E70E4BAB62802357
S31500001B30A28920601343A381009B20616361019BFE
S31500001B4063B128000E23E15E00F07AF930B103227A
S31500001B50A38993431A0001231343A381A089074352
S31500001B60A781CEE7D918000070B5050079B10C1F22
S31500001B702368002B00DAE418280000F083F91C4AD9
S31500001B8013682BB963601460280000F083F970BDF8
S31500001B90A34208D9216860188342F3D118685B68AC
S31500001BA041182160EEE71A005B680BB1A342FAD92F
S31500001BB011685018A0420BD12068091850181160FE
S31500001BC08342E1D118685B68411811605360DBE716
S31500001BD0A04202D90C232B60D6E721686018834205
S31500001BE003D118685B684118216063605460CBE7D5
S31500001BF0BC41002070B50E4E0D003168040011B9CD
S31500001C0000F08EF830602900200000F089F8431CAF
S31500001C100AD00323C51C9D43A84207D0291A2000D9
S31500001C2000F07EF8431C01D101256D42280070BDED
S31500001C30C0410020F7B50322CB1C934308330600AE
S31500001C401F000C2B32D20C27B94231D8334D30004D
S31500001C5000F018F92B681C00002C2ED1390030003A
S31500001C60FFF7C8FF0400431C1ED12C682500002D79
S31500001C704AD123682900E3183000019300F050F898
S31500001C80019B834243D123680337FF1A03239F43F3
S31500001C9008370C2F00D20C2739003000FFF7AAFFB7
S31500001CA0431C34D02368DF19276013E0002BCBDAFE
S31500001CB00C23002533602800FEBD2268D11B20D4EA
S31500001CC00B2917D9E2192760A34211D12A6063684C
S31500001CD0116053603000250000F0DCF807220B3558
S31500001CE0231D9543EA1A9D42E5D05B1BA350E2E70C
S31500001CF05A60ECE76268A34201D12A60EAE75A60BB
S31500001D00E8E723006468A7E72C006D68AFE70C23BB
S31500001D103000336000F0BEF8CDE7C046BC4100207D
S31500001D20002370B5054D040008002B60FFF79AFAF2
S31500001D30431C02D12B6803B1236070BDC44100204F
S31500001D4070B50C000E25495F00F0ACF8002803DBE7
S31500001D50636D1B18636570BDA389024A1340A38196
S31500001D60F9E7C046FFEFFFFFF8B51F008B890500B6
S31500001D700C001600DB0505D50E23C95E00220223E2
S31500001D8000F06EF8A389054A28001340A3813200AB
S31500001D900E23E15E3B0000F01FF8F8BDFFEFFFFFEA
S31500001DA070B50C000E25495F00F05AF8A389421C55
S31500001DB003D1054A1340A38170BD41F200021343CB
S31500001DC0A3816065F8E7C046FFEFFFFF10B50E235D
S31500001DD0C95E00F013F810BD70B5040008001100CC
S31500001DE01A000023044D2B60FEF7BCFB431C02D1F6
S31500001DF02B6803B1236070BDC4410020002370B579
S31500001E00054D040008002B6000F000F9431C02D1C8
S31500001E102B6803B1236070BDC4410020002370B558
S31500001E20064D0400080011002B6000F037F9431C32
S31500001E3002D12B6803B1236070BDC046C4410020A7
S31500001E40002370B5054D040008002B6000F033F93F
S31500001E50431C02D12B6803B1236070BDC44100202E
S31500001E6070B50400080011001A000023044D2B6011
S31500001E7000F0BBF8431C02D12B6803B1236070BD90
S31500001E80C441002010B50248FFF703FE10BDC0464E
S31500001E90B841002010B50248FFF7FCFD10BDC04652
S31500001EA0B841002070B50400080011001A00002394
S31500001EB0044D2B6000F044F8431C02D12B6803B19B
S31500001EC0236070BDC4410020094B10B5040018689A
S31500001ED018B183690BB9FFF73DFD0020132C06D816
S31500001EE0044BE400E358013301D0024BE01810BD67
S31500001EF004400020C8410020F8B50400FFF7ACFA02
S31500001F00132605000027301C391CABBE061C2E60AC
S31500001F102000F8BD10B5431C01D1FFF7EDFF10BD41
S31500001F2030B585B001AD0190029103920624201CC4
S31500001F30291CABBE041C2000FFF7ECFF05B030BD2A
S31500001F4070B50E001500FFF7BFFF040030B9FFF7AC
S31500001F5083FA092303600120404270BD2A00310044
S31500001F600068FFF7DDFF431CF7D06368281A1B18CB
S31500001F706360F2E7F7B50C001600FFF7A5FF050052
S31500001F8038B9FFF769FA0923036001246442200087
S31500001F90FEBD022E03D9FFF75FFA1623F4E7012EE2
S31500001FA012D14368E418F6D46F462B680A260093CC
S31500001FB07C60301C391CABBE061C3000FFF7AAFF44
S31500001FC00028E2DB6C60E2E7022EEDD103686F4683
S31500001FD000930A36301C391CABBE061C3000FFF7D6
S31500001FE099FF2418431CDFD1CFE710B5FFF7C2FFD6
S31500001FF010BD37B50224019001AD201C291CABBED3
S31500002000041C2000FFF786FF3EBDFFFF70B50500EC
S31500002010FFF75AFF040030B9FFF71EFA09230360E1
S315000020200120404270BD013D012D09D8094B9A6837
S315000020301B699A4204D101235B4203600020F1E749
S315000020402068FFF7D6FF0028ECD101235B4223600E
S31500002050E8E7C046C841002070B50C00FFF734FF22
S31500002060050030B9FFF7F8F9092303600120404263
S3150000207070BD42F2000362680C261343636040F2AF
S315000020800043A364301C291CABBE051C2800FFF7C7
S3150000209041FF431CECD020610020E9E770B50C003D
S315000020A00500582200212000FFF7E5F9280021004D
S315000020B0FFF7D2FF70BD70B5FFF706FF09250400D4
S315000020C020B9FFF7C9F90560200070BD281C211C46
S315000020D0ABBE041C2000012CF7D0FFF7BDF900248D
S315000020E005001326301C211CABBE061C2E60EBE738
S315000020F04275696C7420776974682052656E6573E1
S31500002100617320416476616E63656420466C657810
S3150000211069626C6520536F667477617265205061E1
S31500002120636B6167652076657273696F6E20342E06
S31500002130342E3000342E342E30000000000004040B
S31500002140F8B5C046F8BC08BC9E467047F8B5C04610
S31500002150F8BC08BC9E4670474653505F53554343F0
S31500002160455353203D3D2065727200002E2E2F737D
S3150000217072632F68616C5F656E7472792E630000FE
S3150000218068656C6C6F20776F726C642100FFFFFFCF
S3150000219068616C5F656E74727900FFFFAC40002069
S315000021A0DC210000242200000902000002040205CE
S315000021B002060207000000000000000051050000B2
S315000021C000000000C82100000001000000400020BF
S315000021D00F00FFFF00000000FFFF000004000000EA
S315000021E0E4210000000001000801000000000105D4
S315000021F009010000000001050A01000000000100BD
S3150000220000030000000000041E1C1E1A000000004F
S3150000221000000000000000000000000000000000B8
S3150000222000000000A90E0000510C0000C10E0000C5
S31500002230CD0E0000190D0000650D0000590C0000C0
S31500002240B50C0000DD0C0000010D0000450D00007E
S315000022507D0C0000950C0000010002000800100033
S315000022600840002000000000000000000000000000
S315000022700000000000000000000000000000000058
S315000022800000000000000000000000000000000048
S315000022900000000000000000000000000000000038
S315000022A00000000000000000000000000000000028
S315000022B00000000000000000000000000000000018
S30D000022C0000000000000000010
S315000022C840000C00084000200000000084220000A6
S315000022D8A4220000642200000000000000000000A4
S315000022E800000000000000000000000000000000E0
S315000022F800000000000000000000000000000000D0
S3150000230800000000000000000000000000000000BF
S3150000231800000000000000000000000000000000AF
S3150000232800000000000000002D0500000105000067
S31501010018FFFFFFFFFFFFFFFFFFFFFFFFFFFFFFFFE0
S31101010028FFFFFFFFFFFFFFFFFFFFFFFFD0
S705000012AD3B
